:060000000A128A110C280F
:10000800FE00030EF4000A08F5000A128A116A2895
:100018000A128A110F28F701F801F901FA01830180
:100028000A128A11BC280130831603178800890137
:100038000130831603138500831203138501831689
:1000480003138601831203138601831603138801A1
:10005800831203138801831603130F088F3940385E
:100068008F000F14181218158316031787151930E7
:100078008316031399009A018312031398178316A2
:100088000313181398168312031318168B170B17DC
:10009800831603138C160C17831203130C131F08F3
:1000A8003F3940389F00831603131F129F16C33031
:1000B800831203139F05831603139F1383120313DD
:1000C8001F140330F600F60B672808008312031389
:1000D8000C1F6F2870287E281F0CF300730C0F3933
:1000E800003A031D782879287D281E08F300730834
:1000F800F7000C138C1E812882289A281A08F3000E
:100108007308FA007A0899003130F3007308FA008E
:100118000A128A11A1200A128A113230F3007308D8
:10012800FA000A128A11CC200A128A1175088A006C
:10013800740E8300FE0E7E0E0900B328770888002F
:10014800080899000230F200E730F1000030F000B2
:10015800F00BAC28F10BAC28F20BAC2800003130C6
:10016800831203131A060319BA28BB28A228080009
:100178000A128A1117200A128A11831203139F1870
:10018800C628C728C1289F14C1280A128A110C281A
:10019800CF281A0886003230831203131A0603196F
:0801A800D628D728CD28080055
:08400000FF3FFF3FFF3FFF3FC0
:04400E00D420FF3F7C
:00000001FF
