:060000000A128A110C280F
:10000800FE00030EF1000A08F2000A128A118B287A
:100018000A128A110F2883132C30FD000030FE00CD
:100028009E30FF00203084000A128A117C200A12B8
:100038008A11F50183010A128A1122280A128A11EB
:100048004D200A128A11F401831203132B08750636
:1000580003192F28302827283F280C1E3428352834
:100068003F287408203E840083130008990001305B
:10007800F3007308F4070C307402031C4428452865
:1000880031282B08F3007308F50027280A128A1173
:100098000C28831603178801890183160313860128
:1000A800831203138601831603130F088F39403810
:1000B8008F000F1418121815831603178715193097
:1000C8008316031399009A01831203139817831652
:1000D8000313181398168312031318168B170B178C
:1000E800831603138C1608007E088A007F08820096
:1000F8000A128A1178200A128A118000840A0408D8
:100108007D0603190034FF0A0319FE0A7C288312AE
:1001180003138C1E9028912897281A08F00070085D
:10012800AB002B08860072088A00710E8300FE0E51
:100138007E0E090048346F346C34613420346D34D9
:0C01480075346E3464346F340D34203490
:08400000FF3FFF3FFF3FFF3FC0
:04400E00D420FF3F7C
:00000001FF
